{
  "contractName": "LimitBalanceMock",
  "abi": [
    {
      "constant": true,
      "inputs": [],
      "name": "limit",
      "outputs": [
        {
          "name": "",
          "type": "uint256"
        }
      ],
      "payable": false,
      "stateMutability": "view",
      "type": "function"
    },
    {
      "constant": false,
      "inputs": [],
      "name": "limitedDeposit",
      "outputs": [],
      "payable": true,
      "stateMutability": "payable",
      "type": "function"
    }
  ],
  "bytecode": "0x60806040526103e8806000819055505060d98061001d6000396000f3006080604052600436106049576000357c0100000000000000000000000000000000000000000000000000000000900463ffffffff16806386f3d0cd14604e578063a4d66daf146056575b600080fd5b6054607e565b005b348015606157600080fd5b50606860a7565b6040518082815260200191505060405180910390f35b6000543073ffffffffffffffffffffffffffffffffffffffff16311115151560a557600080fd5b565b600054815600a165627a7a72305820e7ab60fe58f34b94b1896ad10ec4259dce4968c8193d1ca29e6e49054750d3910029",
  "source": "pragma solidity ^0.4.24;\n\n\nimport \"../LimitBalance.sol\";\n\n\n// mock class using LimitBalance\ncontract LimitBalanceMock is LimitBalance(1000) {\n\n  function limitedDeposit() public payable limitedPayable {\n  }\n\n}\n",
  "sourcePath": "/Users/mattwisniewski/Documents/LootSafe/lootsafe.core.contracts/contracts/zeppelin/contracts/mocks/LimitBalanceMock.sol",
  "compiler": {
    "name": "solc",
    "version": "0.4.24+commit.e67f0147.Emscripten.clang"
  },
  "schemaVersion": "2.0.1",
  "updatedAt": "2018-11-19T23:48:38.157Z"
}