{
  "contractName": "SafeERC20Helper",
  "abi": [
    {
      "inputs": [],
      "payable": false,
      "stateMutability": "nonpayable",
      "type": "constructor"
    },
    {
      "constant": false,
      "inputs": [],
      "name": "doFailingTransfer",
      "outputs": [],
      "payable": false,
      "stateMutability": "nonpayable",
      "type": "function"
    },
    {
      "constant": false,
      "inputs": [],
      "name": "doFailingTransferFrom",
      "outputs": [],
      "payable": false,
      "stateMutability": "nonpayable",
      "type": "function"
    },
    {
      "constant": false,
      "inputs": [],
      "name": "doFailingApprove",
      "outputs": [],
      "payable": false,
      "stateMutability": "nonpayable",
      "type": "function"
    },
    {
      "constant": false,
      "inputs": [],
      "name": "doSucceedingTransfer",
      "outputs": [],
      "payable": false,
      "stateMutability": "nonpayable",
      "type": "function"
    },
    {
      "constant": false,
      "inputs": [],
      "name": "doSucceedingTransferFrom",
      "outputs": [],
      "payable": false,
      "stateMutability": "nonpayable",
      "type": "function"
    },
    {
      "constant": false,
      "inputs": [],
      "name": "doSucceedingApprove",
      "outputs": [],
      "payable": false,
      "stateMutability": "nonpayable",
      "type": "function"
    }
  ],
  "bytecode": "0x608060405234801561001057600080fd5b506100196100df565b604051809103906000f080158015610035573d6000803e3d6000fd5b506000806101000a81548173ffffffffffffffffffffffffffffffffffffffff021916908373ffffffffffffffffffffffffffffffffffffffff16021790555061007d6100ef565b604051809103906000f080158015610099573d6000803e3d6000fd5b50600160006101000a81548173ffffffffffffffffffffffffffffffffffffffff021916908373ffffffffffffffffffffffffffffffffffffffff1602179055506100ff565b6040516103508061072383390190565b60405161035380610a7383390190565b6106158061010e6000396000f300608060405260043610610078576000357c0100000000000000000000000000000000000000000000000000000000900463ffffffff16806350930ca51461007d57806356b2c5bb146100945780636573ee1e146100ab578063afa03ac9146100c2578063b19faed8146100d9578063d7228bb5146100f0575b600080fd5b34801561008957600080fd5b50610092610107565b005b3480156100a057600080fd5b506100a9610159565b005b3480156100b757600080fd5b506100c06101a9565b005b3480156100ce57600080fd5b506100d76101f8565b005b3480156100e557600080fd5b506100ee610247565b005b3480156100fc57600080fd5b50610105610297565b005b61015760008060008060009054906101000a900473ffffffffffffffffffffffffffffffffffffffff1673ffffffffffffffffffffffffffffffffffffffff166102ea909392919063ffffffff16565b565b6101a7600080600160009054906101000a900473ffffffffffffffffffffffffffffffffffffffff1673ffffffffffffffffffffffffffffffffffffffff1661040d9092919063ffffffff16565b565b6101f66000806000809054906101000a900473ffffffffffffffffffffffffffffffffffffffff1673ffffffffffffffffffffffffffffffffffffffff166104fb9092919063ffffffff16565b565b6102456000806000809054906101000a900473ffffffffffffffffffffffffffffffffffffffff1673ffffffffffffffffffffffffffffffffffffffff1661040d9092919063ffffffff16565b565b610295600080600160009054906101000a900473ffffffffffffffffffffffffffffffffffffffff1673ffffffffffffffffffffffffffffffffffffffff166104fb9092919063ffffffff16565b565b6102e86000806000600160009054906101000a900473ffffffffffffffffffffffffffffffffffffffff1673ffffffffffffffffffffffffffffffffffffffff166102ea909392919063ffffffff16565b565b8373ffffffffffffffffffffffffffffffffffffffff166323b872dd8484846040518463ffffffff167c0100000000000000000000000000000000000000000000000000000000028152600401808473ffffffffffffffffffffffffffffffffffffffff1673ffffffffffffffffffffffffffffffffffffffff1681526020018373ffffffffffffffffffffffffffffffffffffffff1673ffffffffffffffffffffffffffffffffffffffff1681526020018281526020019350505050602060405180830381600087803b1580156103c157600080fd5b505af11580156103d5573d6000803e3d6000fd5b505050506040513d60208110156103eb57600080fd5b8101908080519060200190929190505050151561040757600080fd5b50505050565b8273ffffffffffffffffffffffffffffffffffffffff1663a9059cbb83836040518363ffffffff167c0100000000000000000000000000000000000000000000000000000000028152600401808373ffffffffffffffffffffffffffffffffffffffff1673ffffffffffffffffffffffffffffffffffffffff16815260200182815260200192505050602060405180830381600087803b1580156104b057600080fd5b505af11580156104c4573d6000803e3d6000fd5b505050506040513d60208110156104da57600080fd5b810190808051906020019092919050505015156104f657600080fd5b505050565b8273ffffffffffffffffffffffffffffffffffffffff1663095ea7b383836040518363ffffffff167c0100000000000000000000000000000000000000000000000000000000028152600401808373ffffffffffffffffffffffffffffffffffffffff1673ffffffffffffffffffffffffffffffffffffffff16815260200182815260200192505050602060405180830381600087803b15801561059e57600080fd5b505af11580156105b2573d6000803e3d6000fd5b505050506040513d60208110156105c857600080fd5b810190808051906020019092919050505015156105e457600080fd5b5050505600a165627a7a7230582078350c23251568501532959ad860aa65b0d2dd5490b2d60e23876c60784ee0a20029608060405234801561001057600080fd5b50610330806100206000396000f300608060405260043610610078576000357c0100000000000000000000000000000000000000000000000000000000900463ffffffff168063095ea7b31461007d57806318160ddd146100e257806323b872dd1461010d57806370a0823114610192578063a9059cbb146101e9578063dd62ed3e1461024e575b600080fd5b34801561008957600080fd5b506100c8600480360381019080803573ffffffffffffffffffffffffffffffffffffffff169060200190929190803590602001909291905050506102c5565b604051808215151515815260200191505060405180910390f35b3480156100ee57600080fd5b506100f76102d0565b6040518082815260200191505060405180910390f35b34801561011957600080fd5b50610178600480360381019080803573ffffffffffffffffffffffffffffffffffffffff169060200190929190803573ffffffffffffffffffffffffffffffffffffffff169060200190929190803590602001909291905050506102d8565b604051808215151515815260200191505060405180910390f35b34801561019e57600080fd5b506101d3600480360381019080803573ffffffffffffffffffffffffffffffffffffffff1690602001909291905050506102e4565b6040518082815260200191505060405180910390f35b3480156101f557600080fd5b50610234600480360381019080803573ffffffffffffffffffffffffffffffffffffffff169060200190929190803590602001909291905050506102ee565b604051808215151515815260200191505060405180910390f35b34801561025a57600080fd5b506102af600480360381019080803573ffffffffffffffffffffffffffffffffffffffff169060200190929190803573ffffffffffffffffffffffffffffffffffffffff1690602001909291905050506102f9565b6040518082815260200191505060405180910390f35b600080905092915050565b600080905090565b60008090509392505050565b6000809050919050565b600080905092915050565b6000809050929150505600a165627a7a72305820c55741cb9ebc46c8875cdb84aa064005d486adbd46cbca81b896cdeca06a37580029608060405234801561001057600080fd5b50610333806100206000396000f300608060405260043610610078576000357c0100000000000000000000000000000000000000000000000000000000900463ffffffff168063095ea7b31461007d57806318160ddd146100e257806323b872dd1461010d57806370a0823114610192578063a9059cbb146101e9578063dd62ed3e1461024e575b600080fd5b34801561008957600080fd5b506100c8600480360381019080803573ffffffffffffffffffffffffffffffffffffffff169060200190929190803590602001909291905050506102c5565b604051808215151515815260200191505060405180910390f35b3480156100ee57600080fd5b506100f76102d1565b6040518082815260200191505060405180910390f35b34801561011957600080fd5b50610178600480360381019080803573ffffffffffffffffffffffffffffffffffffffff169060200190929190803573ffffffffffffffffffffffffffffffffffffffff169060200190929190803590602001909291905050506102d9565b604051808215151515815260200191505060405180910390f35b34801561019e57600080fd5b506101d3600480360381019080803573ffffffffffffffffffffffffffffffffffffffff1690602001909291905050506102e6565b6040518082815260200191505060405180910390f35b3480156101f557600080fd5b50610234600480360381019080803573ffffffffffffffffffffffffffffffffffffffff169060200190929190803590602001909291905050506102f0565b604051808215151515815260200191505060405180910390f35b34801561025a57600080fd5b506102af600480360381019080803573ffffffffffffffffffffffffffffffffffffffff169060200190929190803573ffffffffffffffffffffffffffffffffffffffff1690602001909291905050506102fc565b6040518082815260200191505060405180910390f35b60006001905092915050565b600080905090565b6000600190509392505050565b6000809050919050565b60006001905092915050565b6000809050929150505600a165627a7a723058206e237f726e63cc78e2a05368ec126b48fe08d319ed7a5a5e30497d9fcce266530029",
  "source": "pragma solidity ^0.4.24;\n\nimport \"../token/ERC20/ERC20.sol\";\nimport \"../token/ERC20/SafeERC20.sol\";\n\n\ncontract ERC20FailingMock is ERC20 {\n  function totalSupply() public view returns (uint256) {\n    return 0;\n  }\n\n  function transfer(address, uint256) public returns (bool) {\n    return false;\n  }\n\n  function transferFrom(address, address, uint256) public returns (bool) {\n    return false;\n  }\n\n  function approve(address, uint256) public returns (bool) {\n    return false;\n  }\n\n  function balanceOf(address) public view returns (uint256) {\n    return 0;\n  }\n\n  function allowance(address, address) public view returns (uint256) {\n    return 0;\n  }\n}\n\n\ncontract ERC20SucceedingMock is ERC20 {\n  function totalSupply() public view returns (uint256) {\n    return 0;\n  }\n\n  function transfer(address, uint256) public returns (bool) {\n    return true;\n  }\n\n  function transferFrom(address, address, uint256) public returns (bool) {\n    return true;\n  }\n\n  function approve(address, uint256) public returns (bool) {\n    return true;\n  }\n\n  function balanceOf(address) public view returns (uint256) {\n    return 0;\n  }\n\n  function allowance(address, address) public view returns (uint256) {\n    return 0;\n  }\n}\n\n\ncontract SafeERC20Helper {\n  using SafeERC20 for ERC20;\n\n  ERC20 failing;\n  ERC20 succeeding;\n\n  constructor() public {\n    failing = new ERC20FailingMock();\n    succeeding = new ERC20SucceedingMock();\n  }\n\n  function doFailingTransfer() public {\n    failing.safeTransfer(address(0), 0);\n  }\n\n  function doFailingTransferFrom() public {\n    failing.safeTransferFrom(address(0), address(0), 0);\n  }\n\n  function doFailingApprove() public {\n    failing.safeApprove(address(0), 0);\n  }\n\n  function doSucceedingTransfer() public {\n    succeeding.safeTransfer(address(0), 0);\n  }\n\n  function doSucceedingTransferFrom() public {\n    succeeding.safeTransferFrom(address(0), address(0), 0);\n  }\n\n  function doSucceedingApprove() public {\n    succeeding.safeApprove(address(0), 0);\n  }\n}\n",
  "sourcePath": "/Users/mattwisniewski/Documents/LootSafe/lootsafe.core.contracts/contracts/zeppelin/contracts/mocks/SafeERC20Helper.sol",
  "compiler": {
    "name": "solc",
    "version": "0.4.24+commit.e67f0147.Emscripten.clang"
  },
  "schemaVersion": "2.0.1",
  "updatedAt": "2018-11-19T23:48:38.161Z"
}